{
  "contractName": "PaymentProcessor",
  "abi": [
    {
      "inputs": [
        {
          "name": "name",
          "type": "string"
        },
        {
          "name": "firstParty",
          "type": "address"
        },
        {
          "name": "secondParty",
          "type": "address"
        }
      ],
      "payable": false,
      "stateMutability": "nonpayable",
      "type": "constructor"
    },
    {
      "constant": true,
      "inputs": [],
      "name": "getName",
      "outputs": [
        {
          "name": "name",
          "type": "string"
        }
      ],
      "payable": false,
      "stateMutability": "view",
      "type": "function"
    },
    {
      "constant": true,
      "inputs": [],
      "name": "getFirstParty",
      "outputs": [
        {
          "name": "firstParty",
          "type": "address"
        }
      ],
      "payable": false,
      "stateMutability": "view",
      "type": "function"
    },
    {
      "constant": true,
      "inputs": [],
      "name": "getSecondParty",
      "outputs": [
        {
          "name": "secondParty",
          "type": "address"
        }
      ],
      "payable": false,
      "stateMutability": "view",
      "type": "function"
    },
    {
      "constant": true,
      "inputs": [],
      "name": "getNextServiceId",
      "outputs": [
        {
          "name": "nextServiceId",
          "type": "uint256"
        }
      ],
      "payable": false,
      "stateMutability": "view",
      "type": "function"
    },
    {
      "constant": true,
      "inputs": [
        {
          "name": "serviceId",
          "type": "uint256"
        }
      ],
      "name": "getServiceName",
      "outputs": [
        {
          "name": "name",
          "type": "string"
        }
      ],
      "payable": false,
      "stateMutability": "view",
      "type": "function"
    },
    {
      "constant": true,
      "inputs": [
        {
          "name": "serviceId",
          "type": "uint256"
        }
      ],
      "name": "getServiceCost",
      "outputs": [
        {
          "name": "cost",
          "type": "uint256"
        }
      ],
      "payable": false,
      "stateMutability": "view",
      "type": "function"
    },
    {
      "constant": true,
      "inputs": [
        {
          "name": "serviceId",
          "type": "uint256"
        }
      ],
      "name": "getServiceEnabled",
      "outputs": [
        {
          "name": "enabled",
          "type": "bool"
        }
      ],
      "payable": false,
      "stateMutability": "view",
      "type": "function"
    },
    {
      "constant": true,
      "inputs": [
        {
          "name": "purchaser",
          "type": "address"
        }
      ],
      "name": "getPurchases",
      "outputs": [
        {
          "name": "purchaseHistory",
          "type": "uint256[]"
        }
      ],
      "payable": false,
      "stateMutability": "view",
      "type": "function"
    },
    {
      "constant": true,
      "inputs": [],
      "name": "getFirstPartyPot",
      "outputs": [
        {
          "name": "firstPartyPot",
          "type": "uint256"
        }
      ],
      "payable": false,
      "stateMutability": "view",
      "type": "function"
    },
    {
      "constant": true,
      "inputs": [],
      "name": "getSecondPartyPot",
      "outputs": [
        {
          "name": "secondPartyPot",
          "type": "uint256"
        }
      ],
      "payable": false,
      "stateMutability": "view",
      "type": "function"
    },
    {
      "constant": false,
      "inputs": [
        {
          "name": "name",
          "type": "string"
        },
        {
          "name": "cost",
          "type": "uint256"
        }
      ],
      "name": "addService",
      "outputs": [],
      "payable": false,
      "stateMutability": "nonpayable",
      "type": "function"
    },
    {
      "constant": false,
      "inputs": [
        {
          "name": "serviceId",
          "type": "uint256"
        },
        {
          "name": "name",
          "type": "string"
        },
        {
          "name": "cost",
          "type": "uint256"
        },
        {
          "name": "enabled",
          "type": "bool"
        }
      ],
      "name": "updateService",
      "outputs": [],
      "payable": false,
      "stateMutability": "nonpayable",
      "type": "function"
    },
    {
      "constant": false,
      "inputs": [
        {
          "name": "newFirstParty",
          "type": "address"
        }
      ],
      "name": "updateFirstParty",
      "outputs": [],
      "payable": false,
      "stateMutability": "nonpayable",
      "type": "function"
    },
    {
      "constant": false,
      "inputs": [
        {
          "name": "newSecondParty",
          "type": "address"
        }
      ],
      "name": "updateSecondParty",
      "outputs": [],
      "payable": false,
      "stateMutability": "nonpayable",
      "type": "function"
    },
    {
      "constant": false,
      "inputs": [
        {
          "name": "serviceId",
          "type": "uint256"
        }
      ],
      "name": "purchase",
      "outputs": [],
      "payable": true,
      "stateMutability": "payable",
      "type": "function"
    },
    {
      "constant": false,
      "inputs": [],
      "name": "withdrawFirst",
      "outputs": [],
      "payable": false,
      "stateMutability": "nonpayable",
      "type": "function"
    },
    {
      "constant": false,
      "inputs": [],
      "name": "withdrawSecond",
      "outputs": [],
      "payable": false,
      "stateMutability": "nonpayable",
      "type": "function"
    }
  ],
  "bytecode": "0x608060405260006003553480156200001657600080fd5b506040516200139c3803806200139c833981018060405260608110156200003c57600080fd5b8101908080516401000000008111156200005557600080fd5b828101905060208101848111156200006c57600080fd5b81518560018202830111640100000000821117156200008a57600080fd5b505092919060200180519060200190929190805190602001909291905050508260009080519060200190620000c19291906200014d565b5081600160006101000a81548173ffffffffffffffffffffffffffffffffffffffff021916908373ffffffffffffffffffffffffffffffffffffffff16021790555080600260006101000a81548173ffffffffffffffffffffffffffffffffffffffff021916908373ffffffffffffffffffffffffffffffffffffffff160217905550505050620001fc565b828054600181600116156101000203166002900490600052602060002090601f016020900481019282601f106200019057805160ff1916838001178555620001c1565b82800160010185558215620001c1579182015b82811115620001c0578251825591602001919060010190620001a3565b5b509050620001d09190620001d4565b5090565b620001f991905b80821115620001f5576000816000905550600101620001db565b5090565b90565b611190806200020c6000396000f3fe6080604052600436106100fe5760003560e01c80639f94528211610095578063e628341f11610064578063e628341f146105cf578063e83e772a1461061e578063ec96730114610649578063efef39a114610731578063ff6553201461075f576100fe565b80639f94528214610490578063a7695d3b146104bb578063c3f67cde146104e6578063cc1a40b7146104fd576100fe565b80636261e0af116100d15780636261e0af1461029257806370cd5a80146102e35780637a7e7c4b14610389578063953058f8146103dc576100fe565b806302daa04c1461010357806316a358981461015457806317d7de7c146101ab5780634b0dcf1c1461023b575b600080fd5b34801561010f57600080fd5b506101526004803603602081101561012657600080fd5b81019080803573ffffffffffffffffffffffffffffffffffffffff169060200190929190505050610776565b005b34801561016057600080fd5b50610169610814565b604051808273ffffffffffffffffffffffffffffffffffffffff1673ffffffffffffffffffffffffffffffffffffffff16815260200191505060405180910390f35b3480156101b757600080fd5b506101c061083e565b6040518080602001828103825283818151815260200191508051906020019080838360005b838110156102005780820151818401526020810190506101e5565b50505050905090810190601f16801561022d5780820380516001836020036101000a031916815260200191505b509250505060405180910390f35b34801561024757600080fd5b506102506108e0565b604051808273ffffffffffffffffffffffffffffffffffffffff1673ffffffffffffffffffffffffffffffffffffffff16815260200191505060405180910390f35b34801561029e57600080fd5b506102e1600480360360208110156102b557600080fd5b81019080803573ffffffffffffffffffffffffffffffffffffffff16906020019092919050505061090a565b005b3480156102ef57600080fd5b506103326004803603602081101561030657600080fd5b81019080803573ffffffffffffffffffffffffffffffffffffffff1690602001909291905050506109a8565b6040518080602001828103825283818151815260200191508051906020019060200280838360005b8381101561037557808201518184015260208101905061035a565b505050509050019250505060405180910390f35b34801561039557600080fd5b506103c2600480360360208110156103ac57600080fd5b8101908080359060200190929190505050610a3f565b604051808215151515815260200191505060405180910390f35b3480156103e857600080fd5b50610415600480360360208110156103ff57600080fd5b8101908080359060200190929190505050610a69565b6040518080602001828103825283818151815260200191508051906020019080838360005b8381101561045557808201518184015260208101905061043a565b50505050905090810190601f1680156104825780820380516001836020036101000a031916815260200191505b509250505060405180910390f35b34801561049c57600080fd5b506104a5610b1e565b6040518082815260200191505060405180910390f35b3480156104c757600080fd5b506104d0610b28565b6040518082815260200191505060405180910390f35b3480156104f257600080fd5b506104fb610b32565b005b34801561050957600080fd5b506105cd6004803603604081101561052057600080fd5b810190808035906020019064010000000081111561053d57600080fd5b82018360208201111561054f57600080fd5b8035906020019184600183028401116401000000008311171561057157600080fd5b91908080601f016020809104026020016040519081016040528093929190818152602001838380828437600081840152601f19601f82011690508083019250505050505050919291929080359060200190929190505050610c10565b005b3480156105db57600080fd5b50610608600480360360208110156105f257600080fd5b8101908080359060200190929190505050610d4a565b6040518082815260200191505060405180910390f35b34801561062a57600080fd5b50610633610d67565b6040518082815260200191505060405180910390f35b34801561065557600080fd5b5061072f6004803603608081101561066c57600080fd5b81019080803590602001909291908035906020019064010000000081111561069357600080fd5b8201836020820111156106a557600080fd5b803590602001918460018302840111640100000000831117156106c757600080fd5b91908080601f016020809104026020016040519081016040528093929190818152602001838380828437600081840152601f19601f82011690508083019250505050505050919291929080359060200190929190803515159060200190929190505050610d71565b005b61075d6004803603602081101561074757600080fd5b8101908080359060200190929190505050610ea2565b005b34801561076b57600080fd5b50610774610f95565b005b600160009054906101000a900473ffffffffffffffffffffffffffffffffffffffff1673ffffffffffffffffffffffffffffffffffffffff163373ffffffffffffffffffffffffffffffffffffffff16146107d057600080fd5b80600160006101000a81548173ffffffffffffffffffffffffffffffffffffffff021916908373ffffffffffffffffffffffffffffffffffffffff16021790555050565b6000600260009054906101000a900473ffffffffffffffffffffffffffffffffffffffff16905090565b606060008054600181600116156101000203166002900480601f0160208091040260200160405190810160405280929190818152602001828054600181600116156101000203166002900480156108d65780601f106108ab576101008083540402835291602001916108d6565b820191906000526020600020905b8154815290600101906020018083116108b957829003601f168201915b5050505050905090565b6000600160009054906101000a900473ffffffffffffffffffffffffffffffffffffffff16905090565b600260009054906101000a900473ffffffffffffffffffffffffffffffffffffffff1673ffffffffffffffffffffffffffffffffffffffff163373ffffffffffffffffffffffffffffffffffffffff161461096457600080fd5b80600260006101000a81548173ffffffffffffffffffffffffffffffffffffffff021916908373ffffffffffffffffffffffffffffffffffffffff16021790555050565b6060600760008373ffffffffffffffffffffffffffffffffffffffff1673ffffffffffffffffffffffffffffffffffffffff168152602001908152602001600020805480602002602001604051908101604052809291908181526020018280548015610a3357602002820191906000526020600020905b815481526020019060010190808311610a1f575b50505050509050919050565b60006006600083815260200190815260200160002060009054906101000a900460ff169050919050565b6060600460008381526020019081526020016000208054600181600116156101000203166002900480601f016020809104026020016040519081016040528092919081815260200182805460018160011615610100020316600290048015610b125780601f10610ae757610100808354040283529160200191610b12565b820191906000526020600020905b815481529060010190602001808311610af557829003601f168201915b50505050509050919050565b6000600854905090565b6000600954905090565b600260009054906101000a900473ffffffffffffffffffffffffffffffffffffffff1673ffffffffffffffffffffffffffffffffffffffff163373ffffffffffffffffffffffffffffffffffffffff1614610b8c57600080fd5b600060095411610b9b57600080fd5b6000600981905550600260009054906101000a900473ffffffffffffffffffffffffffffffffffffffff1673ffffffffffffffffffffffffffffffffffffffff166108fc6009549081150290604051600060405180830381858888f19350505050158015610c0d573d6000803e3d6000fd5b50565b600160009054906101000a900473ffffffffffffffffffffffffffffffffffffffff1673ffffffffffffffffffffffffffffffffffffffff163373ffffffffffffffffffffffffffffffffffffffff161480610cb95750600260009054906101000a900473ffffffffffffffffffffffffffffffffffffffff1673ffffffffffffffffffffffffffffffffffffffff163373ffffffffffffffffffffffffffffffffffffffff16145b610cc257600080fd5b816004600060035481526020019081526020016000209080519060200190610ceb9291906110bf565b508060056000600354815260200190815260200160002081905550600160066000600354815260200190815260200160002060006101000a81548160ff0219169083151502179055506003600081548092919060010191905055505050565b600060056000838152602001908152602001600020549050919050565b6000600354905090565b600160009054906101000a900473ffffffffffffffffffffffffffffffffffffffff1673ffffffffffffffffffffffffffffffffffffffff163373ffffffffffffffffffffffffffffffffffffffff161480610e1a5750600260009054906101000a900473ffffffffffffffffffffffffffffffffffffffff1673ffffffffffffffffffffffffffffffffffffffff163373ffffffffffffffffffffffffffffffffffffffff16145b610e2357600080fd5b6003548410610e3157600080fd5b82600460008681526020019081526020016000209080519060200190610e589291906110bf565b50816005600086815260200190815260200160002081905550806006600086815260200190815260200160002060006101000a81548160ff02191690831515021790555050505050565b6005600082815260200190815260200160002054341015610ec257600080fd5b600760003373ffffffffffffffffffffffffffffffffffffffff1673ffffffffffffffffffffffffffffffffffffffff1681526020019081526020016000208190806001815401808255809150509060018203906000526020600020016000909192909190915055506000610f4160023461107390919063ffffffff16565b90506000610f58823461108c90919063ffffffff16565b9050610f6f826008546110a390919063ffffffff16565b600881905550610f8a816009546110a390919063ffffffff16565b600981905550505050565b600160009054906101000a900473ffffffffffffffffffffffffffffffffffffffff1673ffffffffffffffffffffffffffffffffffffffff163373ffffffffffffffffffffffffffffffffffffffff1614610fef57600080fd5b600060085411610ffe57600080fd5b6000600881905550600160009054906101000a900473ffffffffffffffffffffffffffffffffffffffff1673ffffffffffffffffffffffffffffffffffffffff166108fc6008549081150290604051600060405180830381858888f19350505050158015611070573d6000803e3d6000fd5b50565b60008082848161107f57fe5b0490508091505092915050565b60008282111561109857fe5b818303905092915050565b6000808284019050838110156110b557fe5b8091505092915050565b828054600181600116156101000203166002900490600052602060002090601f016020900481019282601f1061110057805160ff191683800117855561112e565b8280016001018555821561112e579182015b8281111561112d578251825591602001919060010190611112565b5b50905061113b919061113f565b5090565b61116191905b8082111561115d576000816000905550600101611145565b5090565b9056fea165627a7a723058203a6581b12cf08abfa4a47038e8631d503a1446663bed859275a1af11996fcb3a0029",
  "source": "pragma solidity ^0.5.8;\r\n\r\n\r\n/**\r\n * @title SafeMath\r\n * @dev Math operations with safety checks that throw on error\r\n */\r\nlibrary SafeMath {\r\n\r\n  /**\r\n  * @dev Multiplies two numbers, throws on overflow.\r\n  */\r\n  function mul(uint256 a, uint256 b) internal pure returns (uint256) {\r\n    if (a == 0) {\r\n      return 0;\r\n    }\r\n    uint256 c = a * b;\r\n    assert(c / a == b);\r\n    return c;\r\n  }\r\n\r\n  /**\r\n  * @dev Integer division of two numbers, truncating the quotient.\r\n  */\r\n  function div(uint256 a, uint256 b) internal pure returns (uint256) {\r\n    // assert(b > 0); // Solidity automatically throws when dividing by 0\r\n    uint256 c = a / b;\r\n    // assert(a == b * c + a % b); // There is no case in which this doesn't hold\r\n    return c;\r\n  }\r\n\r\n  /**\r\n  * @dev Substracts two numbers, throws on overflow (i.e. if subtrahend is greater than minuend).\r\n  */\r\n  function sub(uint256 a, uint256 b) internal pure returns (uint256) {\r\n    assert(b <= a);\r\n    return a - b;\r\n  }\r\n\r\n  /**\r\n  * @dev Adds two numbers, throws on overflow.\r\n  */\r\n  function add(uint256 a, uint256 b) internal pure returns (uint256) {\r\n    uint256 c = a + b;\r\n    assert(c >= a);\r\n    return c;\r\n  }\r\n}\r\n\r\n\r\ncontract PaymentProcessor {\r\n  using SafeMath for uint256;\r\n\r\n  // Payment processor name.\r\n  string private _name;\r\n\r\n  // The first party to receive withdrawals.\r\n  address payable private _firstParty;\r\n\r\n  // The second party to receive withdrawals.\r\n  address payable private _secondParty;\r\n\r\n  // The identifier to use for the next service offered.\r\n  uint256 private _nextServiceId = 0;\r\n\r\n  // The names of each service offered by this processor.\r\n  mapping (uint256 => string) private _serviceNames;\r\n\r\n  // The cost in wei for each service offered by this processor.\r\n  mapping (uint256 => uint256) private _serviceCosts;\r\n\r\n  // Whether or not a particular service is enabled for use.\r\n  mapping (uint256 => bool) private _serviceEnabled;\r\n\r\n  // A mapping to record all services purchased by a given address.\r\n  mapping (address => uint256[]) private _purchases;\r\n\r\n  // The pot containing the first party's income.\r\n  uint256 _firstPartyPot;\r\n\r\n  // The pot containing the second party's income.\r\n  uint256 _secondPartyPot;\r\n\r\n  // Construct this payment processor.\r\n  constructor(string memory name, address payable firstParty, address payable secondParty) public {\r\n    _name = name;\r\n    _firstParty = firstParty;\r\n    _secondParty = secondParty;\r\n  }\r\n\r\n  // Get the payment processor's name.\r\n  function getName() public view returns (string memory name) {\r\n    return _name;\r\n  }\r\n\r\n  // Get the payment processor's first party.\r\n  function getFirstParty() public view returns (address firstParty) {\r\n    return _firstParty;\r\n  }\r\n\r\n  // Get the payment processor's second party.\r\n  function getSecondParty() public view returns (address secondParty) {\r\n    return _secondParty;\r\n  }\r\n\r\n  // Get the next available service identifier.\r\n  function getNextServiceId() public view returns (uint256 nextServiceId) {\r\n    return _nextServiceId;\r\n  }\r\n\r\n  // Get a specified service's name.\r\n  function getServiceName(uint256 serviceId) public view returns (string memory name) {\r\n    return _serviceNames[serviceId];\r\n  }\r\n\r\n  // Get a specified service's cost.\r\n  function getServiceCost(uint256 serviceId) public view returns (uint256 cost) {\r\n    return _serviceCosts[serviceId];\r\n  }\r\n\r\n  // Get a specified service's enabled state.\r\n  function getServiceEnabled(uint256 serviceId) public view returns (bool enabled) {\r\n    return _serviceEnabled[serviceId];\r\n  }\r\n\r\n  // Returns a user's purchases.\r\n  function getPurchases(address purchaser) public view returns (uint256[] memory purchaseHistory) {\r\n    return _purchases[purchaser];\r\n  }\r\n\r\n  // Get the value of the first party's pot.\r\n  function getFirstPartyPot() public view returns (uint256 firstPartyPot) {\r\n    return _firstPartyPot;\r\n  }\r\n\r\n  // Get the value of the second party's pot.\r\n  function getSecondPartyPot() public view returns (uint256 secondPartyPot) {\r\n    return _secondPartyPot;\r\n  }\r\n\r\n  // This modifier allows interaction only from the first party address.\r\n  modifier onlyFirst {\r\n    require(msg.sender == _firstParty);\r\n    _;\r\n  }\r\n\r\n  // This modifier allows interaction only from the second party address.\r\n  modifier onlySecond {\r\n    require(msg.sender == _secondParty);\r\n    _;\r\n  }\r\n\r\n  // This modifier allows interaction only from the addresses party to this contract.\r\n  modifier onlyParties {\r\n    require(msg.sender == _firstParty || msg.sender == _secondParty);\r\n    _;\r\n  }\r\n\r\n  // Add a new service to this payment processor.\r\n  function addService(string memory name, uint256 cost) onlyParties public {\r\n    _serviceNames[_nextServiceId] = name;\r\n    _serviceCosts[_nextServiceId] = cost;\r\n    _serviceEnabled[_nextServiceId] = true;\r\n    _nextServiceId++;\r\n  }\r\n\r\n  // Updates the status of an existing service offered by this payment processor.\r\n  function updateService(uint256 serviceId, string memory name, uint256 cost, bool enabled) onlyParties public {\r\n    require(serviceId < _nextServiceId);\r\n    _serviceNames[serviceId] = name;\r\n    _serviceCosts[serviceId] = cost;\r\n    _serviceEnabled[serviceId] = enabled;\r\n  }\r\n\r\n  // Allows the first party to select a new address to serve in its stead.\r\n  function updateFirstParty(address payable newFirstParty) onlyFirst public {\r\n    _firstParty = newFirstParty;\r\n  }\r\n\r\n  // Allows the second party to select a new address to serve in its stead.\r\n  function updateSecondParty(address payable newSecondParty) onlySecond public {\r\n    _secondParty = newSecondParty;\r\n  }\r\n\r\n  // Allows a user to purchase a service.\r\n  function purchase(uint256 serviceId) payable public {\r\n    require(msg.value >= _serviceCosts[serviceId]);\r\n    _purchases[msg.sender].push(serviceId);\r\n    uint256 firstPortion = msg.value.div(2);\r\n    uint256 secondPortion = msg.value.sub(firstPortion);\r\n    _firstPartyPot = _firstPartyPot.add(firstPortion);\r\n    _secondPartyPot = _secondPartyPot.add(secondPortion);\r\n  }\r\n\r\n  // Allows the first party to withdraw their funds.\r\n  function withdrawFirst() onlyFirst public {\r\n    require(_firstPartyPot > 0);\r\n    _firstPartyPot = 0;\r\n    _firstParty.transfer(_firstPartyPot);\r\n  }\r\n\r\n  // Allows the second party to withdraw their funds.\r\n  function withdrawSecond() onlySecond public {\r\n    require(_secondPartyPot > 0);\r\n    _secondPartyPot = 0;\r\n    _secondParty.transfer(_secondPartyPot);\r\n  }\r\n}\r\n",
  "sourcePath": "/home/tim/payment-contract/contracts/PaymentProcessor.sol",
  "compiler": {
    "name": "solc",
    "version": "0.5.8+commit.23d335f2.Emscripten.clang"
  },
  "schemaVersion": "3.0.11",
  "updatedAt": "2019-08-14T18:34:25.092Z",
  "devdoc": {
    "methods": {}
  },
  "userdoc": {
    "methods": {}
  }
}